:020000040800F2
:1000000000500020BD0F0008031000080510000874
:1000100007100008091000080B100008000000007D
:100020000000000000000000000000000D100008AB
:100030000F10000800000000111000081310000845
:1000400017100008191000081B1000081D100008E8
:100050001F100008211000082310000825100008B8
:1000600027100008291000082B1000082D10000888
:100070002F10000831100008331000083510000858
:1000800037100008391000083B1000083D10000828
:100090003F100008411000084310000845100008F8
:1000A00047100008491000084B1000084D100008C8
:1000B0004F10000851100008531000085510000898
:1000C00057100008591000085B1000085D10000868
:1000D0005F100008610F0008631000086510000839
:1000E00067100008691000086B10000810B5054C77
:1000F000237833B9044B13B10448AFF300800123D4
:10010000237010BD7C0000200000000000150008D6
:1001100008B5064B1BB106480649AFF300800648F8
:10012000036813B1054B03B1984708BD00000000F8
:1001300000150008800000207C0000200000000066
:10014000154B002B08BF134B9D46A3F5803A0021A9
:100150008B460F461348144A121A01F07FF80F4BD2
:10016000002B00D098470E4B002B00D09847002062
:10017000002104000D000D48002802D00C48AFF308
:10018000008001F045F82000290000F08DFC01F00E
:100190002BF800BF00000800005000200000000005
:1001A000000000007C0000202C0500200000000062
:1001B0000000000080B487B000AF786000237B614E
:1001C00000233B610F23FB607B68DB78002B38D07A
:1001D000264BDB68DB4303F4E0631B0A7B617B692E
:1001E000C3F104033B617B69FA6822FA03F3FB6005
:1001F0007B685B781A463B6902FA03F37B617B6894
:100200009B781A46FB6813407A6913437B617B69CC
:100210001B017B6116497B681B787A69D2B20B445B
:1002200083F80023124B7A6812785209D2B27968A7
:10023000097801F01F01012000FA01F143F82210B2
:100240000EE00B4B7A6812785209D2B279680978BD
:1002500001F01F01012000FA01F1203243F82210C1
:100260001C37BD465DF8047B704700BF00ED00E021
:1002700000E100E080B489B000AF7860396000230D
:10028000FB6100233B610023BB610023FB60002373
:100290007B610023BB603B68DB7803F00F03FB61ED
:1002A0003B68DB7803F01003002B04D03B689B789D
:1002B000FA691343FB613B681B88DBB2002B44D017
:1002C0007B681B687B610023BB6138E0BB6901224E
:1002D00002FA03F3FB603B681B881A46FB68134075
:1002E0003B613A69FB689A4226D1BB699B00FB607F
:1002F000FB680F2202FA03F3BB60BB68DB437A6939
:1003000013407B61FB68FA6902FA03F37A691343CD
:100310007B613B68DB78282B05D1BB6901229A40C1
:100320007B685A6108E03B68DB78482B04D1BB69E5
:1003300001229A407B681A61BB690133BB61BB69CA
:10034000072BC3D97B687A691A603B681B88FF2B2F
:1003500046D97B685B687B610023BB613AE0BB697F
:100360000833012202FA03F3FB603B681B881A463C
:10037000FB6813403B613A69FB689A4227D1BB692D
:100380009B00FB60FB680F2202FA03F3BB60BB68B3
:10039000DB437A6913407B61FB68FA6902FA03F375
:1003A0007A6913437B613B68DB78282B05D1BB69F5
:1003B000083301229A407B685A613B68DB78482BFE
:1003C00005D1BB69083301229A407B681A61BB6979
:1003D0000133BB61BB69072BC1D97B687A695A605D
:1003E0002437BD465DF8047B704700BF80B487B0FA
:1003F00000AF786000237B6100233B610023FB603A
:100400000023BB604D4B5B6803F00C037B617B6991
:10041000042B07D0082B09D0002B34D17B68484A25
:100420001A6034E07B68464A1A6030E0434B5B68F0
:1004300003F470133B61414B5B6803F48033FB6052
:100440003B699B0C02333B61FB68002B06D13B6987
:100450003C4A02FB03F27B681A6013E0374B5B688F
:1004600003F40033002B06D03B69364A02FB03F24B
:100470007B681A6006E03B69314A02FB03F27B6845
:100480001A6004E003E07B682D4A1A6000BF2B4B22
:100490005B6803F0F0037B617B691B097B612A4A7F
:1004A0007B6913441B78DBB2BB607B681A68BB684E
:1004B000DA407B685A60214B5B6803F4E0637B6140
:1004C0007B691B0A7B61204A7B6913441B78DBB282
:1004D000BB607B685A68BB68DA407B689A60174BE0
:1004E0005B6803F460537B617B69DB0A7B61164ABE
:1004F0007B6913441B78DBB2BB607B685A68BB68BE
:10050000DA407B68DA600D4B5B6803F440437B6143
:100510007B699B0B7B610D4A7B6913441B78DBB2C3
:10052000BB607B68DA68BB68B2FBF3F27B681A6178
:100530001C37BD465DF8047B704700BF00100240C9
:1005400000127A0000093D00000000201000002089
:1005500080B483B000AF78600B46FB70FB78002B53
:1005600006D0094B084A91697A680A439A6106E005
:10057000054B054A91697A68D2430A409A610C3763
:10058000BD465DF8047B70470010024080B483B024
:1005900000AF78600B46FB70FB78002B06D0094B50
:1005A000084AD1697A680A43DA6106E0054B054AD0
:1005B000D1697A68D2430A40DA610C37BD465DF8EA
:1005C000047B70470010024080B58CB000AF7860AB
:1005D00039600023FB620023BB6200237B6200239F
:1005E0003B620023FB617B68FB617B681B8A9BB2DB
:1005F000FB62FA6A4CF6FF731340FB623B68DB88D0
:10060000FA6A1343FB62FB6A9AB27B681A827B68C0
:100610009B899BB2FB62FA6A4EF6F3131340FB62AE
:100620003B689A883B681B8913439AB23B685B8995
:1006300013439BB2FA6A1343FB62FB6A9AB27B686C
:100640009A817B689B8A9BB2FB62FA6A4FF6FF43F2
:100650001340FB623B689B89FA6A1343FB62FB6AA7
:100660009AB27B689A8207F108031846FFF7BEFE2C
:10067000FA69304B9A4202D17B69BB6201E03B6967
:10068000BB627B689B899BB29BB21BB2002B0CDACE
:10069000BA6A13469B0013449A001A443B681B68CD
:1006A0005B00B2FBF3F37B620BE0BA6A13469B007C
:1006B00013449A001A443B681B689B00B2FBF3F397
:1006C0007B627A6A1C4BA3FB02135B091B01FB6272
:1006D000FB6A1B09642202FB03F37A6AD31A3B62AA
:1006E0007B689B899BB29BB21BB2002B0DDA3B6AE5
:1006F000DB0003F13202104BA3FB02135B0903F092
:100700000703FA6A1343FB620CE03B6A1B0103F127
:100710003202094BA3FB02135B0903F00F03FA6AD1
:100720001343FB62FB6A9AB27B681A813037BD467D
:1007300080BD00BF003801401F85EB5180B483B0FD
:1007400000AF78600B46FB70FB78002B08D07B680D
:100750009B899BB243F400539AB27B689A8107E06D
:100760007B689B899BB223F400539AB27B689A8181
:100770000C37BD465DF8047B704700BF80B487B07E
:1007800000AF786013460A467A807B7000233B6195
:100790000023FB600023BB6000237B617B687B61DF
:1007A0007B88DBB25B09DBB23B617B8803F01F0314
:1007B000FB60FB68012202FA03F3BB603B69012B7B
:1007C00003D17B690C337B6109E03B69022B03D1C8
:1007D0007B6910337B6102E07B6914337B617B783A
:1007E000002B06D07B697A691168BA680A431A60DF
:1007F00006E07B697A691168BA68D2430A401A60D8
:100800001C37BD465DF8047B704700BF80B483B0E1
:1008100000AF78600B467B807B88C3F308039AB2F5
:100820007B689A800C37BD465DF8047B704700BF3B
:1008300080B485B000AF78600B467B800023FB73EB
:100840007B681B889AB27B8813409BB2002B02D036
:100850000123FB7301E00023FB73FB7B1846143775
:10086000BD465DF8047B704780B582B000AF78600C
:100870000B46FB7000BF78688021FFF7D9FF034665
:10088000002BF8D0FB789BB278681946FFF7BEFFC3
:100890000837BD4680BD00BF80B584B000AF78602A
:1008A00039600023FB730AE0FB7B3A6813441B7832
:1008B00078681946FFF7D8FFFB7B0133FB73FB7B9E
:1008C0003A6813441B78002BEED11037BD4680BD2B
:1008D00080B483B000AF786002E07B68013B7B604E
:1008E0007B68002BF9D10C37BD465DF8047B70475F
:1008F00080B500AF44F204000121FFF729FE614BEF
:1009000002229A705F4B4FF400721A805D4B1822DE
:10091000DA705D485B49FFF7ADFC5A4B4FF48062DB
:100920001A80584B0422DA7057485649FFF7A2FC48
:10093000564B4FF416521A60544B00229A80534B78
:100940000022DA80514B00221A81504B00229A81FA
:100950004E4B0C225A814E484C49FFF735FE4C480D
:100960000121FFF7EBFE62B64A4B25221A70494B74
:1009700000225A70474B00229A70464B0122DA70CF
:100980004448FFF717FC424840F225510122FFF787
:10099000F5FE4FF400300121FFF7F8FD042001219E
:1009A000FFF7D6FD374B02229A70364B04221A808D
:1009B000344B1822DA7034483249FFF75BFC314B74
:1009C00008221A802F4B0422DA702F482D49FFF796
:1009D00051FC314B4FF416521A602F4B00229A8073
:1009E0002D4B0022DA802C4B00221A812A4B002248
:1009F0009A81294B0C225A8128482749FFF7E4FDA8
:100A000026480121FFF79AFE4FF480200121FFF7CD
:100A1000BDFD08200121FFF79BFD1A4B02229A70B1
:100A2000184B4FF480621A80164B1822DA701C485B
:100A30001449FFF71FFC134B4FF400621A80114B4F
:100A40000422DA7016480F49FFF714FC124B4FF4DA
:100A500016521A60104B00229A800F4B0022DA8047
:100A60000D4B00221A810C4B00229A810A4B0C225A
:100A70005A810C480849FFF7A7FD0A480121FFF7F2
:100A80005DFE80BD1C010020000801402001002007
:100A900000380140300100203401002000440040B3
:100AA000000C014000480040F0B58BB000AFAE4BE9
:100AB0001C463D4604F1200E2E4623461868596810
:100AC0009A68DB680FC6103410357445F4D12B4694
:100AD00022461068186012791A71FFF709FF3B4629
:100AE000A2481946FFF7D8FEA048A149FFF7D4FE57
:100AF000A048A14900F0BAFB0346002B1AD19B483D
:100B00009C49FFF7C9FE9D4B00221A7097489C49EB
:100B1000FFF7C2FE97480021802200F09FFB00BF34
:100B200092489849FFF7B8FE3B4690481946FFF7B0
:100B3000B3FE00E0DCE794489449FFF7ADFE94482B
:100B4000FFF7C6FE8B48934900F090FB0346002B4D
:100B50000FD186488749FFF79FFE884B00221A7005
:100B600082488349FFF798FE82480021802200F0E6
:100B700075FB8048884900F079FB0346002B10D1B3
:100B80007A487C49FFF788FE7C4B00221A70774830
:100B90007749FFF781FE77480021802200F05EFB55
:100BA00000E0C8E778487D49FFF776FE7848FFF710
:100BB0008FFE70487A4900F059FB0346002B10D194
:100BC0006A486C49FFF768FE6C4B00221A70674850
:100BD0007449FFF761FE67480021802200F03EFB68
:100BE00000E0DFE73B4668481946FFF755FE6848D6
:100BF000FFF76EFE5F486A4900F038FB0346002BA2
:100C000010D15A485B49FFF747FE5C4B00221A702F
:100C100056486549FFF740FE56480021802200F003
:100C20001DFB00E0DEE758486049FFF735FE5848F5
:100C3000FFF74EFE4F485A4900F018FB0346002BC1
:100C400015D14A484B49FFF727FE4C4B00221A703A
:100C500046485749FFF720FE46480021802200F011
:100C6000FDFA00BF48485349FFF716FE00E0DAE7F7
:100C70004748FFF72DFE3F48494900F0F7FA034681
:100C8000002B0FD139483B49FFF706FE3B4B0022B2
:100C90001A7036484849FFF7FFFD36480021802288
:100CA00000F0DCFA3348454900F0E0FA0346002B37
:100CB00010D12E482F49FFF7EFFD304B00221A705C
:100CC0002A483F49FFF7E8FD2A480021802200F02A
:100CD000C5FA81E027483B4900F0C8FA0346002BDB
:100CE00010D122482349FFF7D7FD244B00221A7068
:100CF0001E483349FFF7D0FD1E480021802200F036
:100D0000ADFA69E01B48304900F0B0FA0346002B09
:100D100010D116481749FFF7BFFD184B00221A7073
:100D200012482A49FFF7B8FD12480021802200F03E
:100D300095FA51E00F48264900F098FA0346002B37
:100D400010D10A480B49FFF7A7FD0C4B00221A707F
:100D500006482049FFF7A0FD06480021802200F048
:100D60007DFA39E084E700BFD01400080044004059
:100D70009C1200089C000020A0120008980000208F
:100D8000AC120008BC12000800380140E012000854
:100D900080969800EC120008FC1200080C13000862
:100DA000181300081C130008281300083413000847
:100DB000401300084C130008701300089413000837
:100DC000A8130008BC130008CC130008E0130008A7
:100DD000F4130008081400084D484E49FFF75CFD65
:100DE0004D48FFF775FD4D484D4900F03FFA034669
:100DF000002B40F084804B484849FFF74DFD4A4B9B
:100E000000221A7047484949FFF746FD4348002130
:100E1000802200F023FA43484549FFF73DFD454B4A
:100E20001B88FA2B21D900BF39484349FFF734FD0D
:100E3000424BDBB236481946FFF716FD404BDBB29A
:100E400033481946FFF710FD3E4BDBB230481946D8
:100E5000FFF70AFD3048FFF73BFD30483A4900F004
:100E600005FA0346002B28D116E0384B1B889BB2AD
:100E700003F02003002B0ED02E4B1B88334A9288A0
:100E800092B2D1B22C4AD1542A4B1B8801339AB268
:100E9000284B1A80C3E7C2E722482049FFF7FCFC31
:100EA000214B00221A701F482949FFF7F5FC1B4807
:100EB0000021802200F0D2F920E01848254900F0F6
:100EC000D5F90346002B10D116481449FFF7E4FC6E
:100ED000154B00221A7013481F49FFF7DDFC0F481D
:100EE0000021802200F0BAF908E00E480B49FFF714
:100EF000D3FC0C481949FFF7CFFC00BF00E06BE7BB
:100F000008480B49FFF7C8FC18462C37BD46F0BD12
:100F1000003801401C140008809698009C000020B6
:100F200030140008004400409800002034140008E9
:100F30003C1400089A0000204401002058140008C6
:100F40005C140008601400086414000800480040A5
:100F50007814000884140008AC140008B8140008C1
:100F600080B483B000AF124B1B889BB203F0200308
:100F7000002B17D00E4B9B889BB2FB71FB790D2B7E
:100F800010D0FB790A2B0DD00A4B1B78084A9288A7
:100F900092B2D1B2084AD154064B1B780133DAB26F
:100FA000044B1A700C37BD465DF8047B704700BFD8
:100FB00000380140980000209C0000200649074AA4
:100FC000074B9A42BEBF51F8040B42F8040BF8E7F6
:100FD00004488047044800470C1500080000002022
:100FE0007C00002075100008410100081F49204ABC
:100FF000002301E041F8043B9142FBD3FFF754FD8D
:10100000FEE7FEE7FEE7FEE7FEE7FEE7FEE7FEE7B8
:10101000FEE7FEE7FEE7FEE7FEE7FEE7FEE7FEE7A8
:10102000FEE7FEE7FEE7FEE7FEE7FEE7FEE7FEE798
:10103000FEE7FEE7FEE7FEE7FEE7FEE7FEE7FEE788
:10104000FEE7FEE7FEE7FEE7FEE7FEE7FEE7FEE778
:10105000FEE7FEE7FEE7FEE7FEE7FEE7FEE7FEE768
:10106000FEE7FEE7FEE7FEE7FEE7FEE77C00002086
:101070002C05002080B500AF154B154A126842F0D0
:1010800001021A60124A124B5968124B0B4053600E
:101090000F4A0F4B1B6823F0847323F480331360D3
:1010A0000B4B0B4A126822F480221A60084B084A44
:1010B000526822F4FE025A60054B4FF41F029A60F8
:1010C00000F00CF8044B4FF000629A6080BD00BF46
:1010D000001002400000FFF800ED00E080B500AF16
:1010E00000F002F880BD00BF80B483B000AF0023E1
:1010F0007B6000233B603A4B394A126842F48032ED
:101100001A60374B1B6803F400333B607B68013384
:101110007B603B68002B03D17B68B3F5A06FF0D1F7
:101120002F4B1B6803F40033002B02D001233B60DC
:1011300001E000233B603B68012B4BD1294B294A3E
:10114000126842F010021A60264B264A126822F0FA
:1011500003021A60234B234A126842F002021A600B
:101160001F4B1F4A52685A601D4B1D4A52685A60F5
:101170001B4B1B4A526842F480625A60184B184A53
:10118000526822F47C125A60154B154A526842F498
:10119000E8125A60124B124A126842F080721A60CA
:1011A00000BF0F4B1B6803F00073002BF9D00C4BF2
:1011B0000B4A526822F003025A60094B084A5268EF
:1011C00042F002025A6000BF054B5B6803F00C035B
:1011D000082BF9D10C37BD465DF8047B704700BF82
:1011E000001002400020024008B5074B044613B12E
:1011F0000021AFF30080054B1868836A03B198475C
:10120000204600F03DF800BF00000000FC1400087C
:1012100070B50E4B0E4D0024ED1AAD101E46AC42BB
:1012200004D056F8242090470134F8E700F02AF85B
:10123000084D094B0024ED1AAD101E46AC4204D0F7
:1012400056F8242090470134F8E770BD7400002060
:10125000740000207800002074000020024403463F
:10126000934202D003F8011BFAE7704710F8012BF4
:1012700011F8013B012A28BF9A42F7D0D01A7047D3
:10128000FEE70000F8B500BFF8BC08BC9E467047FA
:10129000F8B500BFF8BC08BC9E4670470D0A0000B8
:1012A0002B50425245414459000000003269665FAC
:1012B0002B504252454144590D0A00002A2A2A2A3D
:1012C0002A2A2A2A2A2A2A2A2A2A2A2A2A2A2A2A7E
:1012D0002A2A2A2A2A2A2A2A2A2A2A0D0A00000029
:1012E00041542B435245473F0D0000002B435245CC
:1012F000473A20302C334F4B000000002B4352451F
:10130000473A20302C314F4B0000000041542B58FD
:101310004953503D300D00004F4B000041542B58B5
:101320004953503D300D0A005373756C6B614F4B40
:101330000D0A000061742B786969633D310D00006E
:1013400061742B786969633D310D0A0061742B74F7
:10135000637073657475703D302C38392E32322EBF
:1013600034372E3138302C383035360D000000003F
:1013700061742B74637073657475703D302C3839EB
:101380002E32322E34372E3138302C383035360D5F
:101390000A0000004F4B2B54435053455455503ACC
:1013A000302C4F4B000000002B54435053455455F4
:1013B000503A302C4F4B0D0A000000002B54435084
:1013C00053455455503A302C4F4B00002B5443504A
:1013D00053455455503A302C4641494C00000000CA
:1013E0002B54435053455455503A302C4641494CA8
:1013F0000D0A00002B54435053455455503A457242
:10140000726F7220310000002B54435053455455E5
:10141000503A4572726F7220310D0A0041542B54BC
:10142000435053454E443D302C3235330D000000BF
:101430003E0000003169660D0A0000003131313193
:10144000313131313131313131313131313131318C
:101450003131310D0A000000200000002A00000098
:101460000D0000004F4B2B54435053454E443A302F
:101470002C32353300000000313131313169660DD5
:101480000A0000004F4B2B54435053454E443A3012
:101490002C3235332B544350434C4F53453A302C68
:1014A0004C696E6B20436C6F73656400313232326D
:1014B0003269660D0A000000313131323132313289
:1014C000313231323132313132313269660D0A0016
:1014D00041542B434744434F4E543D312C224950F5
:1014E000222C227777772E6B796976737461722E4E
:1014F0006E6574220D0000004300000014000020FF
:0415000000000000E7
:081504003CECFF7F0100000038
:10150C00000000000102030401020304060708099D
:10151C0002040608000000000000000000000000AB
:10152C0000000000000000000000000000000000AF
:10153C0000000000F814000800000000000000008B
:10154C00000000000000000000000000000000008F
:10155C00000000000000000000000000000000007F
:10156C00000000000000000000000000000000006F
:0C157C000000000011010008ED00000854
:0400000508000000EF
:00000001FF
